{
    "contractName": "VerificationRegistry",
    "abi": [
        {
            "anonymous": false,
            "inputs": [
                {
                    "indexed": true,
                    "internalType": "bytes32",
                    "name": "hash",
                    "type": "bytes32"
                },
                {
                    "indexed": false,
                    "internalType": "address",
                    "name": "by",
                    "type": "address"
                },
                {
                    "indexed": false,
                    "internalType": "uint256",
                    "name": "date",
                    "type": "uint256"
                }
            ],
            "name": "Revoked",
            "type": "event"
        },
        {
            "anonymous": false,
            "inputs": [
                {
                    "indexed": true,
                    "internalType": "bytes32",
                    "name": "hash",
                    "type": "bytes32"
                },
                {
                    "indexed": false,
                    "internalType": "address",
                    "name": "by",
                    "type": "address"
                },
                {
                    "indexed": false,
                    "internalType": "uint256",
                    "name": "date",
                    "type": "uint256"
                },
                {
                    "indexed": false,
                    "internalType": "uint256",
                    "name": "expDate",
                    "type": "uint256"
                }
            ],
            "name": "Verified",
            "type": "event"
        },
        {
            "constant": false,
            "inputs": [
                {
                    "internalType": "bytes32",
                    "name": "hash",
                    "type": "bytes32"
                }
            ],
            "name": "revoke",
            "outputs": [],
            "payable": false,
            "stateMutability": "nonpayable",
            "type": "function"
        },
        {
            "constant": true,
            "inputs": [
                {
                    "internalType": "bytes32",
                    "name": "",
                    "type": "bytes32"
                },
                {
                    "internalType": "address",
                    "name": "",
                    "type": "address"
                }
            ],
            "name": "verifications",
            "outputs": [
                {
                    "internalType": "uint256",
                    "name": "iat",
                    "type": "uint256"
                },
                {
                    "internalType": "uint256",
                    "name": "exp",
                    "type": "uint256"
                }
            ],
            "payable": false,
            "stateMutability": "view",
            "type": "function"
        },
        {
            "constant": false,
            "inputs": [
                {
                    "internalType": "bytes32",
                    "name": "hash",
                    "type": "bytes32"
                },
                {
                    "internalType": "uint256",
                    "name": "validDays",
                    "type": "uint256"
                }
            ],
            "name": "verify",
            "outputs": [],
            "payable": false,
            "stateMutability": "nonpayable",
            "type": "function"
        }
    ],
    "bytecode": "608060405234801561001057600080fd5b5061022e806100206000396000f3fe608060405234801561001057600080fd5b50600436106100415760003560e01c8063382262fc1461004657806395f5114c1461006b578063b75c7dc6146100b0575b600080fd5b6100696004803603604081101561005c57600080fd5b50803590602001356100cd565b005b6100976004803603604081101561008157600080fd5b50803590602001356001600160a01b0316610164565b6040805192835260208301919091528051918290030190f35b610069600480360360208110156100c657600080fd5b5035610185565b60008082116100dd5760006100e6565b81620151800242015b604080518082018252428082526020808301858152600089815280835285812033808352908452908690209451855590516001909401939093558351928352820152808201839052905191925084917fef081e4d12d9d2377ab4c9af5421f0ce40d78d2031cb2cccd1c23eb0a3c6ecce9181900360600190a2505050565b60006020818152928152604080822090935290815220805460019091015482565b604080518082018252600080825242602080840182815286845283825285842033808652908352938690209451855551600190940193909355835191825291810191909152815183927fbad7982cc5cd1310cfc1c83b1e7e9bc771332036ea180c362910e4068fc5ecf6928290030190a25056fea265627a7a72315820e866b0a3a76ee7bd64d8cb5b120d6a9f547232e92f1b92ed81b9eafb6db15d4d64736f6c63430005100032",
    "sourcePath": "/Users/everis/Documents/Honduras/backend/web3java/contracts/verificationRegistry/VerificationRegistry.sol",
    "compiler": {
        "name": "solc",
        "version": "0.5.16+commit.9c3226ce"
    },
    "functionHashes": {
        "revoke(bytes32)": "b75c7dc6",
        "verifications(bytes32,address)": "95f5114c",
        "verify(bytes32,uint256)": "382262fc"
    },
    "gasEstimates": {
        "creation": {
            "codeDepositCost": "111600",
            "executionCost": "159",
            "totalCost": "111759"
        },
        "external": {
            "revoke(bytes32)": "27160",
            "verifications(bytes32,address)": "2044",
            "verify(bytes32,uint256)": "42457"
        }
    }
}